{
  "contractName": "CampaignManager",
  "abi": [
    {
      "constant": true,
      "inputs": [
        {
          "name": "",
          "type": "uint256"
        }
      ],
      "name": "CampaignNames",
      "outputs": [
        {
          "name": "",
          "type": "string"
        }
      ],
      "payable": false,
      "stateMutability": "view",
      "type": "function"
    },
    {
      "constant": false,
      "inputs": [
        {
          "name": "campaignName",
          "type": "string"
        },
        {
          "name": "maxAgents",
          "type": "uint256"
        },
        {
          "name": "tokenAddress",
          "type": "address"
        }
      ],
      "name": "CreateCampaign",
      "outputs": [],
      "payable": false,
      "stateMutability": "nonpayable",
      "type": "function"
    },
    {
      "constant": true,
      "inputs": [
        {
          "name": "campaignName",
          "type": "string"
        }
      ],
      "name": "GetCampaign",
      "outputs": [
        {
          "name": "",
          "type": "address"
        }
      ],
      "payable": false,
      "stateMutability": "view",
      "type": "function"
    },
    {
      "constant": true,
      "inputs": [],
      "name": "GetNumberOfCampaigns",
      "outputs": [
        {
          "name": "",
          "type": "uint256"
        }
      ],
      "payable": false,
      "stateMutability": "view",
      "type": "function"
    }
  ],
  "bytecode": "0x608060405234801561001057600080fd5b506114e1806100206000396000f300608060405260043610610062576000357c0100000000000000000000000000000000000000000000000000000000900463ffffffff16806357ea2f05146100675780637d240ebc146100fa578063a2dc8b70146101a3578063f5399bf514610249575b600080fd5b34801561007357600080fd5b506100f8600480360381019080803590602001908201803590602001908080601f016020809104026020016040519081016040528093929190818152602001838380828437820191505050505050919291929080359060200190929190803573ffffffffffffffffffffffffffffffffffffffff169060200190929190505050610274565b005b34801561010657600080fd5b50610161600480360381019080803590602001908201803590602001908080601f0160208091040260200160405190810160405280939291908181526020018383808284378201915050505050509192919290505050610438565b604051808273ffffffffffffffffffffffffffffffffffffffff1673ffffffffffffffffffffffffffffffffffffffff16815260200191505060405180910390f35b3480156101af57600080fd5b506101ce600480360381019080803590602001909291905050506104cc565b6040518080602001828103825283818151815260200191508051906020019080838360005b8381101561020e5780820151818401526020810190506101f3565b50505050905090810190601f16801561023b5780820380516001836020036101000a031916815260200191505b509250505060405180910390f35b34801561025557600080fd5b5061025e610587565b6040518082815260200191505060405180910390f35b6000838383610281610594565b80806020018481526020018373ffffffffffffffffffffffffffffffffffffffff1673ffffffffffffffffffffffffffffffffffffffff168152602001828103825285818151815260200191508051906020019080838360005b838110156102f65780820151818401526020810190506102db565b50505050905090810190601f1680156103235780820380516001836020036101000a031916815260200191505b50945050505050604051809103906000f080158015610346573d6000803e3d6000fd5b50905060018490806001815401808255809150509060018203906000526020600020016000909192909190915090805190602001906103869291906105a4565b5050806000856040518082805190602001908083835b6020831015156103c1578051825260208201915060208101905060208303925061039c565b6001836020036101000a038019825116818451168082178552505050505050905001915050908152602001604051809103902060006101000a81548173ffffffffffffffffffffffffffffffffffffffff021916908373ffffffffffffffffffffffffffffffffffffffff16021790555050505050565b600080826040518082805190602001908083835b602083101515610471578051825260208201915060208101905060208303925061044c565b6001836020036101000a038019825116818451168082178552505050505050905001915050908152602001604051809103902060009054906101000a900473ffffffffffffffffffffffffffffffffffffffff169050919050565b6001818154811015156104db57fe5b906000526020600020016000915090508054600181600116156101000203166002900480601f01602080910402602001604051908101604052809291908181526020018280546001816001161561010002031660029004801561057f5780601f106105545761010080835404028352916020019161057f565b820191906000526020600020905b81548152906001019060200180831161056257829003601f168201915b505050505081565b6000600180549050905090565b604051610e6c8061064a83390190565b828054600181600116156101000203166002900490600052602060002090601f016020900481019282601f106105e557805160ff1916838001178555610613565b82800160010185558215610613579182015b828111156106125782518255916020019190600101906105f7565b5b5090506106209190610624565b5090565b61064691905b8082111561064257600081600090555060010161062a565b5090565b905600608060405234801561001057600080fd5b50604051610e6c380380610e6c83398101806040528101908080518201929190602001805190602001909291908051906020019092919050505082600090805190602001906100609291906100b1565b5080600460006101000a81548173ffffffffffffffffffffffffffffffffffffffff021916908373ffffffffffffffffffffffffffffffffffffffff16021790555081600681905550505050610156565b828054600181600116156101000203166002900490600052602060002090601f016020900481019282601f106100f257805160ff1916838001178555610120565b82800160010185558215610120579182015b8281111561011f578251825591602001919060010190610104565b5b50905061012d9190610131565b5090565b61015391905b8082111561014f576000816000905550600101610137565b5090565b90565b610d07806101656000396000f3006080604052600436106100c5576000357c0100000000000000000000000000000000000000000000000000000000900463ffffffff16806333a7e739146100ca5780633f38ac1f1461010d5780633fa93123146101685780634bdf1b0e146101ab57806355ed02dc146101f857806367eef2bc146102a55780636e84f870146102d05780637b2d24db1461032b5780638052474d14610356578063b2472f81146103e6578063f8f8a91214610411578063fbbe93d01461043c578063fda721e4146104af575b600080fd5b3480156100d657600080fd5b5061010b600480360381019080803573ffffffffffffffffffffffffffffffffffffffff1690602001909291905050506104fc565b005b34801561011957600080fd5b5061014e600480360381019080803573ffffffffffffffffffffffffffffffffffffffff169060200190929190505050610540565b604051808215151515815260200191505060405180910390f35b34801561017457600080fd5b506101a9600480360381019080803573ffffffffffffffffffffffffffffffffffffffff169060200190929190505050610596565b005b3480156101b757600080fd5b506101f6600480360381019080803573ffffffffffffffffffffffffffffffffffffffff1690602001909291908035906020019092919050505061066c565b005b34801561020457600080fd5b50610223600480360381019080803590602001909291905050506107ea565b6040518080602001838152602001828103825284818151815260200191508051906020019080838360005b8381101561026957808201518184015260208101905061024e565b50505050905090810190601f1680156102965780820380516001836020036101000a031916815260200191505b50935050505060405180910390f35b3480156102b157600080fd5b506102ba6108b5565b6040518082815260200191505060405180910390f35b3480156102dc57600080fd5b50610311600480360381019080803573ffffffffffffffffffffffffffffffffffffffff1690602001909291905050506108c6565b604051808215151515815260200191505060405180910390f35b34801561033757600080fd5b506103406108e6565b6040518082815260200191505060405180910390f35b34801561036257600080fd5b5061036b610937565b6040518080602001828103825283818151815260200191508051906020019080838360005b838110156103ab578082015181840152602081019050610390565b50505050905090810190601f1680156103d85780820380516001836020036101000a031916815260200191505b509250505060405180910390f35b3480156103f257600080fd5b506103fb6109d5565b6040518082815260200191505060405180910390f35b34801561041d57600080fd5b506104266109eb565b6040518082815260200191505060405180910390f35b34801561044857600080fd5b506104ad600480360381019080803590602001908201803590602001908080601f016020809104026020016040519081016040528093929190818152602001838380828437820191505050505050919291929080359060200190929190505050610aef565b005b3480156104bb57600080fd5b506104fa60048036038101908080359060200190929190803573ffffffffffffffffffffffffffffffffffffffff169060200190929190505050610b6b565b005b80600460006101000a81548173ffffffffffffffffffffffffffffffffffffffff021916908373ffffffffffffffffffffffffffffffffffffffff16021790555050565b6000600260008373ffffffffffffffffffffffffffffffffffffffff1673ffffffffffffffffffffffffffffffffffffffff16815260200190815260200160002060009054906101000a900460ff169050919050565b6006546007805490501015156105ab57600080fd5b6001600260008373ffffffffffffffffffffffffffffffffffffffff1673ffffffffffffffffffffffffffffffffffffffff16815260200190815260200160002060006101000a81548160ff02191690831515021790555060078190806001815401808255809150509060018203906000526020600020016000909192909190916101000a81548173ffffffffffffffffffffffffffffffffffffffff021916908373ffffffffffffffffffffffffffffffffffffffff1602179055505050565b60008060008061067a6109eb565b93506106846109d5565b925060009150838311156106ad57838303905080851015156106a8578091506106ac565b8491505b5b600460009054906101000a900473ffffffffffffffffffffffffffffffffffffffff1673ffffffffffffffffffffffffffffffffffffffff166323b872dd8730856040518463ffffffff167c0100000000000000000000000000000000000000000000000000000000028152600401808473ffffffffffffffffffffffffffffffffffffffff1673ffffffffffffffffffffffffffffffffffffffff1681526020018373ffffffffffffffffffffffffffffffffffffffff1673ffffffffffffffffffffffffffffffffffffffff1681526020018281526020019350505050602060405180830381600087803b1580156107a657600080fd5b505af11580156107ba573d6000803e3d6000fd5b505050506040513d60208110156107d057600080fd5b810190808051906020019092919050505050505050505050565b6001818154811015156107f957fe5b9060005260206000209060030201600091509050806000018054600181600116156101000203166002900480601f0160208091040260200160405190810160405280929190818152602001828054600181600116156101000203166002900480156108a55780601f1061087a576101008083540402835291602001916108a5565b820191906000526020600020905b81548152906001019060200180831161088857829003601f168201915b5050505050908060010154905082565b600060078054905060065403905090565b60026020528060005260406000206000915054906101000a900460ff1681565b60008060006001805490509150600090505b818110156109325760018181548110151561090f57fe5b9060005260206000209060030201600101548301925080806001019150506108f8565b505090565b60008054600181600116156101000203166002900480601f0160208091040260200160405190810160405280929190818152602001828054600181600116156101000203166002900480156109cd5780601f106109a2576101008083540402835291602001916109cd565b820191906000526020600020905b8154815290600101906020018083116109b057829003601f168201915b505050505081565b60006006546109e26108e6565b02905080905090565b600080600460009054906101000a900473ffffffffffffffffffffffffffffffffffffffff1690508073ffffffffffffffffffffffffffffffffffffffff166370a08231306040518263ffffffff167c0100000000000000000000000000000000000000000000000000000000028152600401808273ffffffffffffffffffffffffffffffffffffffff1673ffffffffffffffffffffffffffffffffffffffff168152602001915050602060405180830381600087803b158015610aae57600080fd5b505af1158015610ac2573d6000803e3d6000fd5b505050506040513d6020811015610ad857600080fd5b810190808051906020019092919050505091505090565b610af7610c1c565b6040805190810160405280848152602001838152509050600181908060018154018082558091505090600182039060005260206000209060030201600090919290919091506000820151816000019080519060200190610b58929190610c36565b5060208201518160010155505050505050565b60008210151515610b7b57600080fd5b60078054905082101515610b8e57600080fd5b610b9781610540565b1515610ba257600080fd5b6000600183815481101515610bb357fe5b906000526020600020906003020160020160008373ffffffffffffffffffffffffffffffffffffffff1673ffffffffffffffffffffffffffffffffffffffff16815260200190815260200160002060006101000a81548160ff0219169083151502179055505050565b604080519081016040528060608152602001600081525090565b828054600181600116156101000203166002900490600052602060002090601f016020900481019282601f10610c7757805160ff1916838001178555610ca5565b82800160010185558215610ca5579182015b82811115610ca4578251825591602001919060010190610c89565b5b509050610cb29190610cb6565b5090565b610cd891905b80821115610cd4576000816000905550600101610cbc565b5090565b905600a165627a7a723058209b23fe4ac723e6a4fc6a66e60be39aa85262cb718140f27165ead9af13af55e30029a165627a7a723058201bcd2cb9fbc3dadd535cabe6bacfe52bb6ce29bd0bc10b8b196bba4f573ecceb0029",
  "source": "pragma solidity ^0.4.23;\n\nimport \"../contracts/Campaign.sol\";\n\n\n\ncontract CampaignManager {\n\n  mapping(string => Campaign) _campaigns;\n  string[] public CampaignNames;\n\n  function CreateCampaign(string campaignName, uint maxAgents, address tokenAddress) public {\n    Campaign campaign = new Campaign(campaignName, maxAgents, tokenAddress);\n    CampaignNames.push(campaignName);\n    _campaigns[campaignName] = campaign;\n  }\n\n  function GetCampaign(string campaignName) constant public returns (address) {\n    return _campaigns[campaignName];\n  }\n\n  function GetNumberOfCampaigns() view public returns (uint) {\n    return CampaignNames.length;\n  }\n}\n",
  "sourcePath": "/Users/vienna/Desktop/evoke/contracts/CampaignManager.sol",
  "compiler": {
    "name": "solc",
    "version": "0.4.24+commit.e67f0147.Emscripten.clang"
  },
  "schemaVersion": "2.0.1",
  "updatedAt": "2018-07-27T18:03:11.265Z"
}