{
  "contractName": "Campaign",
  "abi": [
    {
      "constant": false,
      "inputs": [
        {
          "name": "goal",
          "type": "uint256"
        }
      ],
      "name": "SetGoal",
      "outputs": [],
      "payable": false,
      "stateMutability": "nonpayable",
      "type": "function"
    },
    {
      "constant": false,
      "inputs": [
        {
          "name": "tokenAdress",
          "type": "address"
        }
      ],
      "name": "SetTokenAddress",
      "outputs": [],
      "payable": false,
      "stateMutability": "nonpayable",
      "type": "function"
    },
    {
      "constant": false,
      "inputs": [],
      "name": "GetGoal",
      "outputs": [
        {
          "name": "",
          "type": "uint256"
        }
      ],
      "payable": false,
      "stateMutability": "nonpayable",
      "type": "function"
    },
    {
      "constant": false,
      "inputs": [],
      "name": "GetBalance",
      "outputs": [
        {
          "name": "",
          "type": "uint256"
        }
      ],
      "payable": false,
      "stateMutability": "nonpayable",
      "type": "function"
    }
  ],
  "bytecode": "0x608060405234801561001057600080fd5b506102b5806100206000396000f300608060405260043610610062576000357c0100000000000000000000000000000000000000000000000000000000900463ffffffff16806333a7e739146100675780635030924b146100aa578063c14cf305146100d7578063f8f8a91214610102575b600080fd5b34801561007357600080fd5b506100a8600480360381019080803573ffffffffffffffffffffffffffffffffffffffff16906020019092919050505061012d565b005b3480156100b657600080fd5b506100d560048036038101908080359060200190929190505050610171565b005b3480156100e357600080fd5b506100ec61017b565b6040518082815260200191505060405180910390f35b34801561010e57600080fd5b50610117610185565b6040518082815260200191505060405180910390f35b80600260006101000a81548173ffffffffffffffffffffffffffffffffffffffff021916908373ffffffffffffffffffffffffffffffffffffffff16021790555050565b8060018190555050565b6000600154905090565b600080600260009054906101000a900473ffffffffffffffffffffffffffffffffffffffff1690508073ffffffffffffffffffffffffffffffffffffffff166370a08231306040518263ffffffff167c0100000000000000000000000000000000000000000000000000000000028152600401808273ffffffffffffffffffffffffffffffffffffffff1673ffffffffffffffffffffffffffffffffffffffff168152602001915050602060405180830381600087803b15801561024857600080fd5b505af115801561025c573d6000803e3d6000fd5b505050506040513d602081101561027257600080fd5b8101908080519060200190929190505050915050905600a165627a7a723058204d79f57bbfe7f0684a2716c0168a255617c96e6657c0e5311ed524bfcc8264660029",
  "source": "pragma solidity ^0.4.19;\n\nimport \"../contracts/FakeCoin.sol\";\n\ncontract Campaign {\n  address _owner;\n  uint _goal;\n  address _tokenAddress;\n\n\n  function SetGoal(uint goal) public {\n    _goal = goal;\n  }\n\n  function SetTokenAddress(address tokenAdress) public {\n    _tokenAddress = tokenAdress;\n  }\n\n  function GetGoal() public returns (uint) {\n    return _goal;\n    \n  }\n\n  function GetBalance() public returns (uint) {\n    FakeCoin fc = FakeCoin(_tokenAddress);\n    return fc.balanceOf(this);\n  }\n}\n",
  "sourcePath": "/Users/mertozdag/Documents/evoke/contracts/Campaign.sol",
  "compiler": {
    "name": "solc",
    "version": "0.4.24+commit.e67f0147.Emscripten.clang"
  },
  "schemaVersion": "2.0.0",
  "updatedAt": "2018-06-07T15:57:30.489Z"
}