{
  "contractName": "Campaign",
  "abi": [
    {
      "constant": true,
      "inputs": [],
      "name": "Name",
      "outputs": [
        {
          "name": "",
          "type": "string"
        }
      ],
      "payable": false,
      "stateMutability": "view",
      "type": "function"
    },
    {
      "constant": false,
      "inputs": [
        {
          "name": "fundingGoal",
          "type": "uint256"
        }
      ],
      "name": "SetFundingGoal",
      "outputs": [],
      "payable": false,
      "stateMutability": "nonpayable",
      "type": "function"
    },
    {
      "constant": false,
      "inputs": [
        {
          "name": "tokenAdress",
          "type": "address"
        }
      ],
      "name": "SetTokenAddress",
      "outputs": [],
      "payable": false,
      "stateMutability": "nonpayable",
      "type": "function"
    },
    {
      "constant": true,
      "inputs": [],
      "name": "GetGoal",
      "outputs": [
        {
          "name": "fundingGoal",
          "type": "uint256"
        }
      ],
      "payable": false,
      "stateMutability": "view",
      "type": "function"
    },
    {
      "constant": true,
      "inputs": [],
      "name": "GetBalance",
      "outputs": [
        {
          "name": "",
          "type": "uint256"
        }
      ],
      "payable": false,
      "stateMutability": "view",
      "type": "function"
    },
    {
      "constant": true,
      "inputs": [],
      "name": "GetAvailableSeats",
      "outputs": [
        {
          "name": "",
          "type": "uint256"
        }
      ],
      "payable": false,
      "stateMutability": "view",
      "type": "function"
    }
  ],
  "bytecode": "0x608060405234801561001057600080fd5b50610435806100206000396000f300608060405260043610610078576000357c0100000000000000000000000000000000000000000000000000000000900463ffffffff16806333a7e7391461007d57806367eef2bc146100c05780638052474d146100eb578063bb0cf3881461017b578063c14cf305146101a8578063f8f8a912146101d3575b600080fd5b34801561008957600080fd5b506100be600480360381019080803573ffffffffffffffffffffffffffffffffffffffff1690602001909291905050506101fe565b005b3480156100cc57600080fd5b506100d5610242565b6040518082815260200191505060405180910390f35b3480156100f757600080fd5b50610100610253565b6040518080602001828103825283818151815260200191508051906020019080838360005b83811015610140578082015181840152602081019050610125565b50505050905090810190601f16801561016d5780820380516001836020036101000a031916815260200191505b509250505060405180910390f35b34801561018757600080fd5b506101a6600480360381019080803590602001909291905050506102f1565b005b3480156101b457600080fd5b506101bd6102fb565b6040518082815260200191505060405180910390f35b3480156101df57600080fd5b506101e8610305565b6040518082815260200191505060405180910390f35b80600360006101000a81548173ffffffffffffffffffffffffffffffffffffffff021916908373ffffffffffffffffffffffffffffffffffffffff16021790555050565b600060068054905060055403905090565b60008054600181600116156101000203166002900480601f0160208091040260200160405190810160405280929190818152602001828054600181600116156101000203166002900480156102e95780601f106102be576101008083540402835291602001916102e9565b820191906000526020600020905b8154815290600101906020018083116102cc57829003601f168201915b505050505081565b8060028190555050565b6000600254905090565b600080600360009054906101000a900473ffffffffffffffffffffffffffffffffffffffff1690508073ffffffffffffffffffffffffffffffffffffffff166370a08231306040518263ffffffff167c0100000000000000000000000000000000000000000000000000000000028152600401808273ffffffffffffffffffffffffffffffffffffffff1673ffffffffffffffffffffffffffffffffffffffff168152602001915050602060405180830381600087803b1580156103c857600080fd5b505af11580156103dc573d6000803e3d6000fd5b505050506040513d60208110156103f257600080fd5b8101908080519060200190929190505050915050905600a165627a7a7230582095ce1ed6679706d02686dd198699d3e734302446bde1317207fcbfe8fd6d35fd0029",
  "source": "pragma solidity ^0.4.19;\n\nimport \"../contracts/FakeCoin.sol\";\n\ncontract Campaign {\n  //public properties\n  string public Name;\n  //private properties\n  address _owner;\n  uint _fundingGoal;\n  address _tokenAddress;\n  uint _availableSeats;\n  uint _maxSeats;\n  address[] _seats;\n\n  /**\n  @dev Sets Campaign goal\n  @param fundingGoal Number of fakeCoins\n  */\n  function SetFundingGoal(uint fundingGoal) public {\n    _fundingGoal = fundingGoal;\n  }\n\n  /**\n  @dev Sets address of the FakeCoin contract\n  @param tokenAdress Address of the fakeCoin\n  */\n  function SetTokenAddress(address tokenAdress) public {\n    _tokenAddress = tokenAdress;\n  }\n\n  /**\n  @dev Gets Campaign goal\n  @return {\n    \"fundingGoal\" : number of fakeCoins\n  }\n  */\n  function GetGoal() public view returns (uint fundingGoal) {\n    return _fundingGoal;\n  }\n\n  function GetBalance() public view returns (uint) {\n    FakeCoin fc = FakeCoin(_tokenAddress);\n    return fc.balanceOf(this);\n  }\n\n  function GetAvailableSeats() public view returns (uint) {\n    return _maxSeats - _seats.length;\n  }\n}\n",
  "sourcePath": "/Users/mertozdag/Documents/evoke/contracts/Campaign.sol",
  "compiler": {
    "name": "solc",
    "version": "0.4.24+commit.e67f0147.Emscripten.clang"
  },
  "schemaVersion": "2.0.0",
  "updatedAt": "2018-06-07T19:51:41.929Z"
}