{
  "contractName": "Campaign",
  "abi": [
    {
      "constant": true,
      "inputs": [],
      "name": "Name",
      "outputs": [
        {
          "name": "",
          "type": "string"
        }
      ],
      "payable": false,
      "stateMutability": "view",
      "type": "function"
    },
    {
      "inputs": [
        {
          "name": "campaingName",
          "type": "string"
        },
        {
          "name": "fundingGoal",
          "type": "uint256"
        }
      ],
      "payable": false,
      "stateMutability": "nonpayable",
      "type": "constructor"
    },
    {
      "constant": false,
      "inputs": [
        {
          "name": "fundingGoal",
          "type": "uint256"
        }
      ],
      "name": "SetFundingGoal",
      "outputs": [],
      "payable": false,
      "stateMutability": "nonpayable",
      "type": "function"
    },
    {
      "constant": false,
      "inputs": [
        {
          "name": "tokenAdress",
          "type": "address"
        }
      ],
      "name": "SetTokenAddress",
      "outputs": [],
      "payable": false,
      "stateMutability": "nonpayable",
      "type": "function"
    },
    {
      "constant": true,
      "inputs": [],
      "name": "GetGoal",
      "outputs": [
        {
          "name": "fundingGoal",
          "type": "uint256"
        }
      ],
      "payable": false,
      "stateMutability": "view",
      "type": "function"
    },
    {
      "constant": true,
      "inputs": [],
      "name": "GetBalance",
      "outputs": [
        {
          "name": "balance",
          "type": "uint256"
        }
      ],
      "payable": false,
      "stateMutability": "view",
      "type": "function"
    },
    {
      "constant": true,
      "inputs": [],
      "name": "GetAvailableSeats",
      "outputs": [
        {
          "name": "availableSeats",
          "type": "uint256"
        }
      ],
      "payable": false,
      "stateMutability": "view",
      "type": "function"
    },
    {
      "constant": false,
      "inputs": [
        {
          "name": "from",
          "type": "address"
        },
        {
          "name": "tokens",
          "type": "uint256"
        },
        {
          "name": "tokenAddress",
          "type": "address"
        }
      ],
      "name": "receiveApproval",
      "outputs": [],
      "payable": false,
      "stateMutability": "nonpayable",
      "type": "function"
    }
  ],
  "bytecode": "0x608060405234801561001057600080fd5b5060405161071b38038061071b833981018060405281019080805182019291906020018051906020019092919050505080600281905550816000908051906020019061005d929190610065565b50505061010a565b828054600181600116156101000203166002900490600052602060002090601f016020900481019282601f106100a657805160ff19168380011785556100d4565b828001600101855582156100d4579182015b828111156100d35782518255916020019190600101906100b8565b5b5090506100e191906100e5565b5090565b61010791905b808211156101035760008160009055506001016100eb565b5090565b90565b610602806101196000396000f300608060405260043610610083576000357c0100000000000000000000000000000000000000000000000000000000900463ffffffff16806333a7e739146100885780634889ca88146100cb57806367eef2bc146101385780638052474d14610163578063bb0cf388146101f3578063c14cf30514610220578063f8f8a9121461024b575b600080fd5b34801561009457600080fd5b506100c9600480360381019080803573ffffffffffffffffffffffffffffffffffffffff169060200190929190505050610276565b005b3480156100d757600080fd5b50610136600480360381019080803573ffffffffffffffffffffffffffffffffffffffff16906020019092919080359060200190929190803573ffffffffffffffffffffffffffffffffffffffff1690602001909291905050506102ba565b005b34801561014457600080fd5b5061014d61040f565b6040518082815260200191505060405180910390f35b34801561016f57600080fd5b50610178610420565b6040518080602001828103825283818151815260200191508051906020019080838360005b838110156101b857808201518184015260208101905061019d565b50505050905090810190601f1680156101e55780820380516001836020036101000a031916815260200191505b509250505060405180910390f35b3480156101ff57600080fd5b5061021e600480360381019080803590602001909291905050506104be565b005b34801561022c57600080fd5b506102356104c8565b6040518082815260200191505060405180910390f35b34801561025757600080fd5b506102606104d2565b6040518082815260200191505060405180910390f35b80600360006101000a81548173ffffffffffffffffffffffffffffffffffffffff021916908373ffffffffffffffffffffffffffffffffffffffff16021790555050565b60008060006102c76104d2565b9250600091508260025411156102f4578260025403905080851015156102ef578091506102f3565b8491505b5b8373ffffffffffffffffffffffffffffffffffffffff166323b872dd8730856040518463ffffffff167c0100000000000000000000000000000000000000000000000000000000028152600401808473ffffffffffffffffffffffffffffffffffffffff1673ffffffffffffffffffffffffffffffffffffffff1681526020018373ffffffffffffffffffffffffffffffffffffffff1673ffffffffffffffffffffffffffffffffffffffff1681526020018281526020019350505050602060405180830381600087803b1580156103cb57600080fd5b505af11580156103df573d6000803e3d6000fd5b505050506040513d60208110156103f557600080fd5b810190808051906020019092919050505050505050505050565b600060068054905060055403905090565b60008054600181600116156101000203166002900480601f0160208091040260200160405190810160405280929190818152602001828054600181600116156101000203166002900480156104b65780601f1061048b576101008083540402835291602001916104b6565b820191906000526020600020905b81548152906001019060200180831161049957829003601f168201915b505050505081565b8060028190555050565b6000600254905090565b600080600360009054906101000a900473ffffffffffffffffffffffffffffffffffffffff1690508073ffffffffffffffffffffffffffffffffffffffff166370a08231306040518263ffffffff167c0100000000000000000000000000000000000000000000000000000000028152600401808273ffffffffffffffffffffffffffffffffffffffff1673ffffffffffffffffffffffffffffffffffffffff168152602001915050602060405180830381600087803b15801561059557600080fd5b505af11580156105a9573d6000803e3d6000fd5b505050506040513d60208110156105bf57600080fd5b8101908080519060200190929190505050915050905600a165627a7a72305820a91b5ea5871deeeb78953783c8a866f67dcb08f8fcbbc0333c6974f4a2e8e1220029",
  "source": "pragma solidity ^0.4.23;\n\nimport \"../contracts/FakeCoin.sol\";\n\ncontract Campaign is ApproveAndCallFallBackInterface{\n  //public properties\n  string public Name;\n  //private properties\n  address _owner;\n  uint _fundingGoal;\n  address _tokenAddress;\n  uint _availableSeats;\n  uint _maxSeats;\n  address[] _seats;\n\n\n  constructor(string campaingName, uint fundingGoal) public {\n    _fundingGoal = fundingGoal;\n    Name = campaingName;\n  }\n  \n  /**\n  @dev Sets Campaign goal\n  @param fundingGoal Number of fakeCoins\n  */\n  function SetFundingGoal(uint fundingGoal) public {\n    _fundingGoal = fundingGoal;\n  }\n\n  /**\n  @dev Sets address of the FakeCoin contract\n  @param tokenAdress Address of the fakeCoin\n  */\n  function SetTokenAddress(address tokenAdress) public {\n    _tokenAddress = tokenAdress;\n  }\n\n  /**\n  @dev Gets Campaign goal\n  @return {\n    \"fundingGoal\" : \"number of fakeCoins\"\n  }\n  */\n  function GetGoal() public view returns (uint fundingGoal) {\n    return _fundingGoal;\n  }\n\n  /**\n  @dev Gets Campaign fakeCoin balance\n  @return {\n    \"balance\" : \"number of fakeCoins\"\n  }\n  */\n  function GetBalance() public view returns (uint balance) {\n    FakeCoin fc = FakeCoin(_tokenAddress);\n    return fc.balanceOf(this);\n  }\n\n  /**\n  @dev Gets number of seats(enrollable students) of the Campaign\n  @return {\n    \"availableSeats\" : \"number of seats available\"\n  }\n  */\n  function GetAvailableSeats() public view returns (uint availableSeats) {\n    return _maxSeats - _seats.length;\n  }\n\n  /**\n  @dev callback function called from the fakeCoin contract when a transfer is approved\n  @param from address of the spender\n  @param tokens number of tokens to transfer\n  @param tokenAddress address of the fakeCoin contract\n  */\n  function receiveApproval(address from, uint256 tokens, address tokenAddress) public {\n      uint balance = GetBalance();\n      uint tokensToTransfer = 0;\n      if (_fundingGoal >  balance) {\n          uint maxTokensToTransfer = _fundingGoal - balance;\n          if (tokens >= maxTokensToTransfer) {\n            tokensToTransfer = maxTokensToTransfer;\n          }\n          else {\n            tokensToTransfer = tokens;\n          }\n      }\n      FakeCoin(tokenAddress).transferFrom(from, this, tokensToTransfer);\n  }\n}\n",
  "sourcePath": "/Users/mertozdag/Documents/evoke/contracts/Campaign.sol",
  "compiler": {
    "name": "solc",
    "version": "0.4.24+commit.e67f0147.Emscripten.clang"
  },
  "schemaVersion": "2.0.0",
  "updatedAt": "2018-06-08T18:49:05.747Z"
}