{
  "contractName": "Campaign",
  "abi": [
    {
      "constant": false,
      "inputs": [
        {
          "name": "goal",
          "type": "uint256"
        }
      ],
      "name": "SetGoal",
      "outputs": [],
      "payable": false,
      "stateMutability": "nonpayable",
      "type": "function"
    },
    {
      "constant": false,
      "inputs": [],
      "name": "GetGoal",
      "outputs": [
        {
          "name": "",
          "type": "uint256"
        }
      ],
      "payable": false,
      "stateMutability": "nonpayable",
      "type": "function"
    },
    {
      "constant": false,
      "inputs": [],
      "name": "GetBalance",
      "outputs": [
        {
          "name": "",
          "type": "uint256"
        }
      ],
      "payable": false,
      "stateMutability": "nonpayable",
      "type": "function"
    }
  ],
  "bytecode": "0x608060405234801561001057600080fd5b5061011a806100206000396000f3006080604052600436106053576000357c0100000000000000000000000000000000000000000000000000000000900463ffffffff1680635030924b146058578063c14cf305146082578063f8f8a9121460aa575b600080fd5b348015606357600080fd5b5060806004803603810190808035906020019092919050505060d2565b005b348015608d57600080fd5b50609460dc565b6040518082815260200191505060405180910390f35b34801560b557600080fd5b5060bc60e6565b6040518082815260200191505060405180910390f35b8060018190555050565b6000600154905090565b6000809050905600a165627a7a72305820ef059fec0f93b325aab677e09fd34f6ebe77ba1531fa9953685a6df315ce37090029",
  "source": "contract Campaign {\n  address _owner;\n  uint _goal;\n\n  function SetGoal(uint goal) public {\n    _goal = goal;\n  }\n\n  function GetGoal() public returns (uint) {\n    return _goal;\n  }\n\n  function GetBalance() public returns (uint) {\n    return 0;\n  }\n}\n",
  "sourcePath": "/Users/newcarrollton/Desktop/campaign-proj/contracts/Campaign.sol",
  "compiler": {
    "name": "solc",
    "version": "0.4.24+commit.e67f0147.Emscripten.clang"
  },
  "schemaVersion": "2.0.0",
  "updatedAt": "2018-05-25T18:06:27.208Z"
}