{
  "contractName": "CampaignManager",
  "abi": [
    {
      "constant": true,
      "inputs": [
        {
          "name": "",
          "type": "uint256"
        }
      ],
      "name": "CampaignNames",
      "outputs": [
        {
          "name": "",
          "type": "string"
        }
      ],
      "payable": false,
      "stateMutability": "view",
      "type": "function"
    },
    {
      "constant": false,
      "inputs": [
        {
          "name": "campaignName",
          "type": "string"
        },
        {
          "name": "fundingGoal",
          "type": "uint256"
        }
      ],
      "name": "CreateCampaign",
      "outputs": [],
      "payable": false,
      "stateMutability": "nonpayable",
      "type": "function"
    },
    {
      "constant": true,
      "inputs": [
        {
          "name": "campaignName",
          "type": "string"
        }
      ],
      "name": "GetCampaign",
      "outputs": [
        {
          "name": "",
          "type": "address"
        }
      ],
      "payable": false,
      "stateMutability": "view",
      "type": "function"
    }
  ],
  "bytecode": "0x608060405234801561001057600080fd5b50610cf8806100206000396000f300608060405260043610610057576000357c0100000000000000000000000000000000000000000000000000000000900463ffffffff168063127ab5131461005c5780637d240ebc146100cf578063a2dc8b7014610178575b600080fd5b34801561006857600080fd5b506100cd600480360381019080803590602001908201803590602001908080601f01602080910402602001604051908101604052809392919081815260200183838082843782019150505050505091929192908035906020019092919050505061021e565b005b3480156100db57600080fd5b50610136600480360381019080803590602001908201803590602001908080601f01602080910402602001604051908101604052809392919081815260200183838082843782019150505050505091929192905050506103ad565b604051808273ffffffffffffffffffffffffffffffffffffffff1673ffffffffffffffffffffffffffffffffffffffff16815260200191505060405180910390f35b34801561018457600080fd5b506101a360048036038101908080359060200190929190505050610441565b6040518080602001828103825283818151815260200191508051906020019080838360005b838110156101e35780820151818401526020810190506101c8565b50505050905090810190601f1680156102105780820380516001836020036101000a031916815260200191505b509250505060405180910390f35b6000828261022a6104fc565b8080602001838152602001828103825284818151815260200191508051906020019080838360005b8381101561026d578082015181840152602081019050610252565b50505050905090810190601f16801561029a5780820380516001836020036101000a031916815260200191505b509350505050604051809103906000f0801580156102bc573d6000803e3d6000fd5b50905060018390806001815401808255809150509060018203906000526020600020016000909192909190915090805190602001906102fc92919061050c565b5050806000846040518082805190602001908083835b6020831015156103375780518252602082019150602081019050602083039250610312565b6001836020036101000a038019825116818451168082178552505050505050905001915050908152602001604051809103902060006101000a81548173ffffffffffffffffffffffffffffffffffffffff021916908373ffffffffffffffffffffffffffffffffffffffff160217905550505050565b600080826040518082805190602001908083835b6020831015156103e657805182526020820191506020810190506020830392506103c1565b6001836020036101000a038019825116818451168082178552505050505050905001915050908152602001604051809103902060009054906101000a900473ffffffffffffffffffffffffffffffffffffffff169050919050565b60018181548110151561045057fe5b906000526020600020016000915090508054600181600116156101000203166002900480601f0160208091040260200160405190810160405280929190818152602001828054600181600116156101000203166002900480156104f45780601f106104c9576101008083540402835291602001916104f4565b820191906000526020600020905b8154815290600101906020018083116104d757829003601f168201915b505050505081565b60405161071b806105b283390190565b828054600181600116156101000203166002900490600052602060002090601f016020900481019282601f1061054d57805160ff191683800117855561057b565b8280016001018555821561057b579182015b8281111561057a57825182559160200191906001019061055f565b5b509050610588919061058c565b5090565b6105ae91905b808211156105aa576000816000905550600101610592565b5090565b905600608060405234801561001057600080fd5b5060405161071b38038061071b833981018060405281019080805182019291906020018051906020019092919050505080600281905550816000908051906020019061005d929190610065565b50505061010a565b828054600181600116156101000203166002900490600052602060002090601f016020900481019282601f106100a657805160ff19168380011785556100d4565b828001600101855582156100d4579182015b828111156100d35782518255916020019190600101906100b8565b5b5090506100e191906100e5565b5090565b61010791905b808211156101035760008160009055506001016100eb565b5090565b90565b610602806101196000396000f300608060405260043610610083576000357c0100000000000000000000000000000000000000000000000000000000900463ffffffff16806333a7e739146100885780634889ca88146100cb57806367eef2bc146101385780638052474d14610163578063bb0cf388146101f3578063c14cf30514610220578063f8f8a9121461024b575b600080fd5b34801561009457600080fd5b506100c9600480360381019080803573ffffffffffffffffffffffffffffffffffffffff169060200190929190505050610276565b005b3480156100d757600080fd5b50610136600480360381019080803573ffffffffffffffffffffffffffffffffffffffff16906020019092919080359060200190929190803573ffffffffffffffffffffffffffffffffffffffff1690602001909291905050506102ba565b005b34801561014457600080fd5b5061014d61040f565b6040518082815260200191505060405180910390f35b34801561016f57600080fd5b50610178610420565b6040518080602001828103825283818151815260200191508051906020019080838360005b838110156101b857808201518184015260208101905061019d565b50505050905090810190601f1680156101e55780820380516001836020036101000a031916815260200191505b509250505060405180910390f35b3480156101ff57600080fd5b5061021e600480360381019080803590602001909291905050506104be565b005b34801561022c57600080fd5b506102356104c8565b6040518082815260200191505060405180910390f35b34801561025757600080fd5b506102606104d2565b6040518082815260200191505060405180910390f35b80600360006101000a81548173ffffffffffffffffffffffffffffffffffffffff021916908373ffffffffffffffffffffffffffffffffffffffff16021790555050565b60008060006102c76104d2565b9250600091508260025411156102f4578260025403905080851015156102ef578091506102f3565b8491505b5b8373ffffffffffffffffffffffffffffffffffffffff166323b872dd8730856040518463ffffffff167c0100000000000000000000000000000000000000000000000000000000028152600401808473ffffffffffffffffffffffffffffffffffffffff1673ffffffffffffffffffffffffffffffffffffffff1681526020018373ffffffffffffffffffffffffffffffffffffffff1673ffffffffffffffffffffffffffffffffffffffff1681526020018281526020019350505050602060405180830381600087803b1580156103cb57600080fd5b505af11580156103df573d6000803e3d6000fd5b505050506040513d60208110156103f557600080fd5b810190808051906020019092919050505050505050505050565b600060068054905060055403905090565b60008054600181600116156101000203166002900480601f0160208091040260200160405190810160405280929190818152602001828054600181600116156101000203166002900480156104b65780601f1061048b576101008083540402835291602001916104b6565b820191906000526020600020905b81548152906001019060200180831161049957829003601f168201915b505050505081565b8060028190555050565b6000600254905090565b600080600360009054906101000a900473ffffffffffffffffffffffffffffffffffffffff1690508073ffffffffffffffffffffffffffffffffffffffff166370a08231306040518263ffffffff167c0100000000000000000000000000000000000000000000000000000000028152600401808273ffffffffffffffffffffffffffffffffffffffff1673ffffffffffffffffffffffffffffffffffffffff168152602001915050602060405180830381600087803b15801561059557600080fd5b505af11580156105a9573d6000803e3d6000fd5b505050506040513d60208110156105bf57600080fd5b8101908080519060200190929190505050915050905600a165627a7a72305820a91b5ea5871deeeb78953783c8a866f67dcb08f8fcbbc0333c6974f4a2e8e1220029a165627a7a72305820c97a9a2b37d73792a73b9c6a23ee73caf612c115102f81ed7987e3e4a8a2b18f0029",
  "source": "pragma solidity ^0.4.23;\n\nimport \"../contracts/Campaign.sol\";\n\ncontract CampaignManager {\n\n  mapping(string => Campaign) _campaigns;\n  string[] public CampaignNames;\n\n  function CreateCampaign(string campaignName, uint fundingGoal) public {\n    Campaign campaign = new Campaign(campaignName, fundingGoal);\n    CampaignNames.push(campaignName);\n    _campaigns[campaignName] = campaign;\n  }\n\n  function GetCampaign(string campaignName) constant returns (address) {\n    return _campaigns[campaignName];\n  }\n}\n",
  "sourcePath": "/Users/mertozdag/Documents/evoke/contracts/CampaignManager.sol",
  "compiler": {
    "name": "solc",
    "version": "0.4.24+commit.e67f0147.Emscripten.clang"
  },
  "schemaVersion": "2.0.0",
  "updatedAt": "2018-06-08T19:09:33.018Z"
}