{
  "contractName": "Campaign",
  "abi": [
    {
      "constant": true,
      "inputs": [
        {
          "name": "",
          "type": "uint256"
        }
      ],
      "name": "Activities",
      "outputs": [
        {
          "name": "_isCompleted",
          "type": "bool"
        },
        {
          "name": "_agentAddress",
          "type": "address"
        },
        {
          "name": "_activityName",
          "type": "string"
        },
        {
          "name": "_evocoinToEarn",
          "type": "uint256"
        }
      ],
      "payable": false,
      "stateMutability": "view",
      "type": "function"
    },
    {
      "constant": true,
      "inputs": [
        {
          "name": "",
          "type": "address"
        }
      ],
      "name": "Agents",
      "outputs": [
        {
          "name": "",
          "type": "bool"
        }
      ],
      "payable": false,
      "stateMutability": "view",
      "type": "function"
    },
    {
      "constant": true,
      "inputs": [],
      "name": "Name",
      "outputs": [
        {
          "name": "",
          "type": "string"
        }
      ],
      "payable": false,
      "stateMutability": "view",
      "type": "function"
    },
    {
      "inputs": [
        {
          "name": "campaingName",
          "type": "string"
        },
        {
          "name": "maxAgents",
          "type": "uint256"
        },
        {
          "name": "tokenAddress",
          "type": "address"
        }
      ],
      "payable": false,
      "stateMutability": "nonpayable",
      "type": "constructor"
    },
    {
      "constant": false,
      "inputs": [
        {
          "name": "fundingGoal",
          "type": "uint256"
        }
      ],
      "name": "SetFundingGoal",
      "outputs": [],
      "payable": false,
      "stateMutability": "nonpayable",
      "type": "function"
    },
    {
      "constant": false,
      "inputs": [
        {
          "name": "tokenAdress",
          "type": "address"
        }
      ],
      "name": "SetTokenAddress",
      "outputs": [],
      "payable": false,
      "stateMutability": "nonpayable",
      "type": "function"
    },
    {
      "constant": false,
      "inputs": [
        {
          "name": "agent",
          "type": "address"
        }
      ],
      "name": "EnrollAgent",
      "outputs": [],
      "payable": false,
      "stateMutability": "nonpayable",
      "type": "function"
    },
    {
      "constant": false,
      "inputs": [
        {
          "name": "activityName",
          "type": "string"
        },
        {
          "name": "agentAddress",
          "type": "address"
        },
        {
          "name": "evocoinToEarn",
          "type": "uint256"
        }
      ],
      "name": "CreateLearningActivity",
      "outputs": [],
      "payable": false,
      "stateMutability": "nonpayable",
      "type": "function"
    },
    {
      "constant": true,
      "inputs": [
        {
          "name": "agent",
          "type": "address"
        }
      ],
      "name": "AgentsContains",
      "outputs": [
        {
          "name": "",
          "type": "bool"
        }
      ],
      "payable": false,
      "stateMutability": "view",
      "type": "function"
    },
    {
      "constant": true,
      "inputs": [],
      "name": "GetFundingGoal",
      "outputs": [
        {
          "name": "fundingGoal",
          "type": "uint256"
        }
      ],
      "payable": false,
      "stateMutability": "view",
      "type": "function"
    },
    {
      "constant": true,
      "inputs": [],
      "name": "GetBalance",
      "outputs": [
        {
          "name": "balance",
          "type": "uint256"
        }
      ],
      "payable": false,
      "stateMutability": "view",
      "type": "function"
    },
    {
      "constant": true,
      "inputs": [],
      "name": "GetAvailableSeats",
      "outputs": [
        {
          "name": "availableSeats",
          "type": "uint256"
        }
      ],
      "payable": false,
      "stateMutability": "view",
      "type": "function"
    },
    {
      "constant": true,
      "inputs": [],
      "name": "GetCostPerAgent",
      "outputs": [
        {
          "name": "costPerAgent",
          "type": "uint256"
        }
      ],
      "payable": false,
      "stateMutability": "view",
      "type": "function"
    },
    {
      "constant": false,
      "inputs": [
        {
          "name": "from",
          "type": "address"
        },
        {
          "name": "tokens",
          "type": "uint256"
        }
      ],
      "name": "receiveApproval",
      "outputs": [],
      "payable": false,
      "stateMutability": "nonpayable",
      "type": "function"
    }
  ],
  "bytecode": "0x608060405234801561001057600080fd5b50604051610fa8380380610fa883398101806040528101908080518201929190602001805190602001909291908051906020019092919050505082600090805190602001906100609291906100b1565b5080600560006101000a81548173ffffffffffffffffffffffffffffffffffffffff021916908373ffffffffffffffffffffffffffffffffffffffff16021790555081600781905550505050610156565b828054600181600116156101000203166002900490600052602060002090601f016020900481019282601f106100f257805160ff1916838001178555610120565b82800160010185558215610120579182015b8281111561011f578251825591602001919060010190610104565b5b50905061012d9190610131565b5090565b61015391905b8082111561014f576000816000905550600101610137565b5090565b90565b610e43806101656000396000f3006080604052600436106100c5576000357c0100000000000000000000000000000000000000000000000000000000900463ffffffff16806333a7e739146100ca5780633f38ac1f1461010d5780633fa9312314610168578063489110e1146101ab5780634bdf1b0e1461023e57806355ed02dc1461028b57806367eef2bc146103765780636e84f870146103a15780637b2d24db146103fc5780638052474d14610427578063b2472f81146104b7578063bb0cf388146104e2578063f8f8a9121461050f575b600080fd5b3480156100d657600080fd5b5061010b600480360381019080803573ffffffffffffffffffffffffffffffffffffffff16906020019092919050505061053a565b005b34801561011957600080fd5b5061014e600480360381019080803573ffffffffffffffffffffffffffffffffffffffff16906020019092919050505061057e565b604051808215151515815260200191505060405180910390f35b34801561017457600080fd5b506101a9600480360381019080803573ffffffffffffffffffffffffffffffffffffffff1690602001909291905050506105d4565b005b3480156101b757600080fd5b5061023c600480360381019080803590602001908201803590602001908080601f0160208091040260200160405190810160405280939291908181526020018383808284378201915050505050509192919290803573ffffffffffffffffffffffffffffffffffffffff16906020019092919080359060200190929190505050610695565b005b34801561024a57600080fd5b50610289600480360381019080803573ffffffffffffffffffffffffffffffffffffffff16906020019092919080359060200190929190505050610870565b005b34801561029757600080fd5b506102b6600480360381019080803590602001909291905050506109e6565b60405180851515151581526020018473ffffffffffffffffffffffffffffffffffffffff1673ffffffffffffffffffffffffffffffffffffffff16815260200180602001838152602001828103825284818151815260200191508051906020019080838360005b8381101561033857808201518184015260208101905061031d565b50505050905090810190601f1680156103655780820380516001836020036101000a031916815260200191505b509550505050505060405180910390f35b34801561038257600080fd5b5061038b610aea565b6040518082815260200191505060405180910390f35b3480156103ad57600080fd5b506103e2600480360381019080803573ffffffffffffffffffffffffffffffffffffffff169060200190929190505050610afb565b604051808215151515815260200191505060405180910390f35b34801561040857600080fd5b50610411610b1b565b6040518082815260200191505060405180910390f35b34801561043357600080fd5b5061043c610b6c565b6040518080602001828103825283818151815260200191508051906020019080838360005b8381101561047c578082015181840152602081019050610461565b50505050905090810190601f1680156104a95780820380516001836020036101000a031916815260200191505b509250505060405180910390f35b3480156104c357600080fd5b506104cc610c0a565b6040518082815260200191505060405180910390f35b3480156104ee57600080fd5b5061050d60048036038101908080359060200190929190505050610c23565b005b34801561051b57600080fd5b50610524610c2d565b6040518082815260200191505060405180910390f35b80600560006101000a81548173ffffffffffffffffffffffffffffffffffffffff021916908373ffffffffffffffffffffffffffffffffffffffff16021790555050565b6000600260008373ffffffffffffffffffffffffffffffffffffffff1673ffffffffffffffffffffffffffffffffffffffff16815260200190815260200160002060009054906101000a900460ff169050919050565b6001600260008373ffffffffffffffffffffffffffffffffffffffff1673ffffffffffffffffffffffffffffffffffffffff16815260200190815260200160002060006101000a81548160ff02191690831515021790555060088190806001815401808255809150509060018203906000526020600020016000909192909190916101000a81548173ffffffffffffffffffffffffffffffffffffffff021916908373ffffffffffffffffffffffffffffffffffffffff1602179055505050565b61069d610d31565b6080604051908101604052806000151581526020018473ffffffffffffffffffffffffffffffffffffffff1681526020018581526020018381525090506001819080600181540180825580915050906001820390600052602060002090600302016000909192909190915060008201518160000160006101000a81548160ff02191690831515021790555060208201518160000160016101000a81548173ffffffffffffffffffffffffffffffffffffffff021916908373ffffffffffffffffffffffffffffffffffffffff160217905550604082015181600101908051906020019061078b929190610d72565b506060820151816002015550505080600960008573ffffffffffffffffffffffffffffffffffffffff1673ffffffffffffffffffffffffffffffffffffffff16815260200190815260200160002060008201518160000160006101000a81548160ff02191690831515021790555060208201518160000160016101000a81548173ffffffffffffffffffffffffffffffffffffffff021916908373ffffffffffffffffffffffffffffffffffffffff160217905550604082015181600101908051906020019061085c929190610d72565b506060820151816002015590505050505050565b600080600061087d610c2d565b9250600091508260045411156108aa578260045403905080841015156108a5578091506108a9565b8391505b5b600560009054906101000a900473ffffffffffffffffffffffffffffffffffffffff1673ffffffffffffffffffffffffffffffffffffffff166323b872dd8630856040518463ffffffff167c0100000000000000000000000000000000000000000000000000000000028152600401808473ffffffffffffffffffffffffffffffffffffffff1673ffffffffffffffffffffffffffffffffffffffff1681526020018373ffffffffffffffffffffffffffffffffffffffff1673ffffffffffffffffffffffffffffffffffffffff1681526020018281526020019350505050602060405180830381600087803b1580156109a357600080fd5b505af11580156109b7573d6000803e3d6000fd5b505050506040513d60208110156109cd57600080fd5b8101908080519060200190929190505050505050505050565b6001818154811015156109f557fe5b90600052602060002090600302016000915090508060000160009054906101000a900460ff16908060000160019054906101000a900473ffffffffffffffffffffffffffffffffffffffff1690806001018054600181600116156101000203166002900480601f016020809104026020016040519081016040528092919081815260200182805460018160011615610100020316600290048015610ada5780601f10610aaf57610100808354040283529160200191610ada565b820191906000526020600020905b815481529060010190602001808311610abd57829003601f168201915b5050505050908060020154905084565b600060088054905060075403905090565b60026020528060005260406000206000915054906101000a900460ff1681565b60008060006001805490509150600090505b81811015610b6757600181815481101515610b4457fe5b906000526020600020906003020160020154830192508080600101915050610b2d565b505090565b60008054600181600116156101000203166002900480601f016020809104026020016040519081016040528092919081815260200182805460018160011615610100020316600290048015610c025780601f10610bd757610100808354040283529160200191610c02565b820191906000526020600020905b815481529060010190602001808311610be557829003601f168201915b505050505081565b6000600880549050610c1a610b1b565b02905080905090565b8060048190555050565b600080600560009054906101000a900473ffffffffffffffffffffffffffffffffffffffff1690508073ffffffffffffffffffffffffffffffffffffffff166370a08231306040518263ffffffff167c0100000000000000000000000000000000000000000000000000000000028152600401808273ffffffffffffffffffffffffffffffffffffffff1673ffffffffffffffffffffffffffffffffffffffff168152602001915050602060405180830381600087803b158015610cf057600080fd5b505af1158015610d04573d6000803e3d6000fd5b505050506040513d6020811015610d1a57600080fd5b810190808051906020019092919050505091505090565b608060405190810160405280600015158152602001600073ffffffffffffffffffffffffffffffffffffffff16815260200160608152602001600081525090565b828054600181600116156101000203166002900490600052602060002090601f016020900481019282601f10610db357805160ff1916838001178555610de1565b82800160010185558215610de1579182015b82811115610de0578251825591602001919060010190610dc5565b5b509050610dee9190610df2565b5090565b610e1491905b80821115610e10576000816000905550600101610df8565b5090565b905600a165627a7a723058203a4f6e2e313d68d8642ccff09ff9443d62690ab5c299a100e5a0c76f2343131e0029",
  "source": "pragma solidity ^0.4.23;\n\nimport \"../contracts/FakeCoin.sol\";\n\n\n\ncontract Campaign is ApproveAndCallFallBackInterface{\n\n  struct LearningActivity {\n    bool _isCompleted;\n    address _agentAddress;\n    string _activityName;\n    uint _evocoinToEarn;\n  }\n\n  //public properties\n  string public Name;\n  LearningActivity[] public Activities;\n  mapping (address => bool) public Agents;\n  //private properties\n  address _owner;\n  uint _fundingGoal;\n  address _tokenAddress;\n  uint _availableSeats;\n  uint _maxAgents;\n  address[] _agents;\n\n\n  mapping(address => LearningActivity) _agentAssignedActivities;\n\n  constructor(string campaingName, uint maxAgents, address tokenAddress) public {\n    Name = campaingName;\n    _tokenAddress = tokenAddress;\n    _maxAgents = maxAgents;\n  }\n\n  /**\n  @dev Sets Campaign goal\n  @param fundingGoal Number of fakeCoins\n  */\n  function SetFundingGoal(uint fundingGoal) public {\n    _fundingGoal = fundingGoal;\n  }\n\n  /**\n  @dev Sets address of the FakeCoin contract\n  @param tokenAdress Address of the fakeCoin\n  */\n  function SetTokenAddress(address tokenAdress) public {\n    _tokenAddress = tokenAdress;\n  }\n\n  function EnrollAgent(address agent) public {\n      Agents[agent] = true;\n      _agents.push(agent);\n  }\n\n  function CreateLearningActivity(string activityName, address agentAddress, uint evocoinToEarn) public {\n    LearningActivity memory activity = LearningActivity(false, agentAddress, activityName, evocoinToEarn);\n    Activities.push(activity);\n    _agentAssignedActivities[agentAddress] = activity;\n  }\n\n  function AgentsContains(address agent) public view returns (bool) {\n      return Agents[agent];\n  }\n\n  /**\n  @dev Gets Campaign goal which is maxAgents * costPerAgent\n  @return {\n    \"fundingGoal\" : \"number of fakeCoins\"\n  }\n  */\n  function GetFundingGoal() public view returns (uint fundingGoal) {\n    fundingGoal = GetCostPerAgent() * _agents.length;\n    return fundingGoal;\n  }\n\n  /**\n  @dev Gets Campaign fakeCoin balance\n  @return {\n    \"balance\" : \"number of fakeCoins\"\n  }\n  */\n  function GetBalance() public view returns (uint balance) {\n    FakeCoin fc = FakeCoin(_tokenAddress);\n    return fc.balanceOf(this);\n  }\n\n  /**\n  @dev Gets number of seats(enrollable students) of the Campaign\n  @return {\n    \"availableSeats\" : \"number of seats available\"\n  }\n  */\n  function GetAvailableSeats() public view returns (uint availableSeats) {\n    return _maxAgents - _agents.length;\n  }\n\n  function GetCostPerAgent() public view returns (uint costPerAgent) {\n    uint arrayLength = Activities.length;\n    for (uint i = 0; i < arrayLength; i++) {\n      costPerAgent += Activities[i]._evocoinToEarn;\n    }\n  }\n\n  /**\n  @dev callback function called from the fakeCoin contract when a transfer is approved\n  @param from address of the spender\n  @param tokens number of tokens to transfer\n  */\n  function receiveApproval(address from, uint256 tokens) public {\n      uint balance = GetBalance();\n      uint tokensToTransfer = 0;\n      if (_fundingGoal >  balance) {\n          uint maxTokensToTransfer = _fundingGoal - balance;\n          if (tokens >= maxTokensToTransfer) {\n            tokensToTransfer = maxTokensToTransfer;\n          }\n          else {\n            tokensToTransfer = tokens;\n          }\n      }\n      FakeCoin(_tokenAddress).transferFrom(from, this, tokensToTransfer);\n  }\n}\n",
  "sourcePath": "/Users/mertozdag/Documents/evoke2/evoke/contracts/Campaign.sol",
  "compiler": {
    "name": "solc",
    "version": "0.4.24+commit.e67f0147.Emscripten.clang"
  },
  "schemaVersion": "2.0.0",
  "updatedAt": "2018-06-22T14:20:08.789Z"
}